:020000040800F2
:107000000050002019230108ED800008EF800008DF
:10701000F1800008F3800008F580000800000000FF
:10702000000000000000000000000000F7800008E1
:10703000F980000800000000FB800008FD800008C7
:10704000612301086123010861230108612301080C
:1070500061230108612301086123010861230108FC
:1070600061230108612301086123010861230108EC
:1070700005810008612301086123010815810008CA
:1070800061230108612301086123010861230108CC
:10709000258100086123010861230108612301089B
:1070A00061230108612301086123010861230108AC
:1070B000612301086123010835810008612301086B
:1070C0006123010861230108612301084981000847
:1070D00059810008698100086123010861230108C2
:1070E00061230108612301086123010800000000F9
:1070F0000000000000000000000000000000000090
:0C71000000000000000000005FF808F133
:1071100010B5054C237833B9044B13B10448AFF3D1
:1071200000800123237010BD7806002000000000BD
:107130009825010808B5034B1BB103490348AFF379
:10714000008008BD000000007C0600209825010892
:1071500081F0004102E000BF83F0004330B54FEA08
:1071600041044FEA430594EA050F08BF90EA020F75
:107170001FBF54EA000C55EA020C7FEA645C7FEA08
:10718000655C00F0E2804FEA5454D4EB5555B8BF2B
:107190006D420CDD2C4480EA020281EA030382EA9C
:1071A000000083EA010180EA020281EA0303362D2E
:1071B00088BF30BD11F0004F4FEA01314FF4801C01
:1071C0004CEA113102D0404261EB410113F0004F13
:1071D0004FEA03334CEA133302D0524263EB4303CA
:1071E00094EA050F00F0A780A4F10104D5F1200E68
:1071F0000DDB02FA0EFC22FA05F2801841F10001C3
:1072000003FA0EF2801843FA05F359410EE0A5F196
:1072100020050EF1200E012A03FA0EFC28BF4CF0C7
:10722000020C43FA05F3C01851EBE37101F000457D
:1072300007D54FF0000EDCF1000C7EEB00006EEB8A
:107240000101B1F5801F1BD3B1F5001F0CD3490814
:107250005FEA30004FEA3C0C04F101044FEA44526B
:1072600012F5800F80F09A80BCF1004F08BF5FEAF2
:10727000500C50F1000041EB045141EA050130BDD2
:107280005FEA4C0C404141EB0101013C28BFB1F5E4
:10729000801FE9D291F0000F04BF01460020B1FA2F
:1072A00081F308BF2033A3F10B03B3F120020CDA02
:1072B0000C3208DD02F1140CC2F10C0201FA0CF0E0
:1072C00021FA02F10CE002F11402D8BFC2F1200C45
:1072D00001FA02F120FA0CFCDCBF41EA0C019040FB
:1072E000E41AA2BF01EB0451294330BD6FEA040444
:1072F0001F3C1CDA0C340EDC04F11404C4F120022F
:1073000020FA04F001FA02F340EA030021FA04F340
:1073100045EA030130BDC4F10C04C4F1200220FA97
:1073200002F001FA04F340EA0300294630BD21FAD5
:1073300004F0294630BD94F0000F83F4801306BF9B
:1073400081F480110134013D4EE77FEA645C18BF8F
:107350007FEA655C29D094EA050F08BF90EA020F26
:1073600005D054EA000C04BF1946104630BD91EA1E
:10737000030F1EBF0021002030BD5FEA545C05D121
:107380004000494128BF41F0004130BD14F5800460
:107390003CBF01F5801130BD01F0004545F0FE41D4
:1073A00041F470014FF0000030BD7FEA645C1ABF09
:1073B000194610467FEA655C1CBF0B46024650EA40
:1073C000013406BF52EA033591EA030F41F400216C
:1073D00030BD00BF90F0000F04BF0021704730B5F2
:1073E0004FF4806404F132044FF000054FF00001C7
:1073F00050E700BF90F0000F04BF0021704730B588
:107400004FF4806404F1320410F0004548BF40425C
:107410004FF000013EE700BF42004FEAE2014FEAB1
:1074200031014FEA02701FBF12F07F4393F07F4F8C
:1074300081F06051704732F07F4208BF704793F08F
:107440007F4F04BF41F40021704730B54FF46074A2
:1074500001F0004521F000411CE700BF50EA0102A5
:1074600008BF704730B54FF000050AE050EA01024E
:1074700008BF704730B511F0004502D5404261EBBE
:1074800041014FF4806404F132045FEA915C3FF4FF
:10749000D8AE4FF003025FEADC0C18BF03325FEA9C
:1074A000DC0C18BF033202EBDC02C2F1200300FA4D
:1074B00003FC20FA02F001FA03FE40EA0E0021FA72
:1074C00002F11444BDE600BF4FF0FF3C06E000BFF0
:1074D0004FF0010C02E000BF4FF0010C4DF804CD5D
:1074E0004FEA410C7FEA6C5C4FEA430C18BF7FEA1D
:1074F0006C5C1BD001B050EA410C0CBF52EA430C4B
:1075000091EA030F02BF90EA020F0020704710F1CA
:10751000000F91EA030F58BF994208BF90422CBF59
:10752000D8176FEAE37040F0010070474FEA410C52
:107530007FEA6C5C02D150EA013C07D14FEA430C70
:107540007FEA6C5CD6D152EA033CD3D05DF8040BE1
:10755000704700BF8446104662468C461946634613
:1075600000E000BF01B5FFF7B7FF002848BF10F1EA
:10757000000F01BD4DF808EDFFF7F4FF0CBF01202F
:1075800000205DF808FB00BF4DF808EDFFF7EAFFAB
:1075900034BF012000205DF808FB00BF4DF808ED66
:1075A000FFF7E0FF94BF012000205DF808FB00BF5B
:1075B0004DF808EDFFF7CEFF94BF012000205DF8E5
:1075C00008FB00BF4DF808EDFFF7C4FF34BF0120F2
:1075D00000205DF808FB00BF4FEA4102B2F1E04332
:1075E00024BFB3F5001CDCF1FE5C0DD901F0004CAA
:1075F0004FEAC0024CEA5070B2F1004F40EB8300FA
:1076000008BF20F00100704711F0804F21D113F125
:107610003872BCBF01F00040704741F480114FEA5E
:107620005252C2F11802C2F1200C10FA0CF320FAE7
:1076300002F018BF40F001004FEAC1234FEAD32304
:1076400003FA0CFC40EA0C0023FA02F34FEA43036E
:10765000CCE77FEA625307D150EA01331EBF4FF0F7
:10766000FE4040F44000704701F0004040F0FE4012
:1076700040F40000704700BF80F0004002E000BF0F
:1076800081F0004142001FBF5FEA410392EA030F0D
:107690007FEA226C7FEA236C6AD04FEA1262D2EB57
:1076A0001363C1BFD218414048404140B8BF5B425C
:1076B000192B88BF704710F0004F40F4000020F0F5
:1076C0007F4018BF404211F0004F41F4000121F00B
:1076D0007F4118BF494292EA030F3FD0A2F1010255
:1076E00041FA03FC10EB0C00C3F1200301FA03F193
:1076F00000F0004302D5494260EB4000B0F5000FB6
:1077000013D3B0F1807F06D340084FEA310102F174
:107710000102FE2A51D2B1F1004F40EBC25008BF26
:1077200020F0010040EA03007047490040EB0000F0
:10773000013A28BFB0F5000FEDD2B0FA80FCACF1F1
:10774000080CB2EB0C0200FA0CF0AABF00EBC2501E
:1077500052421843BCBFD0401843704792F0000F0C
:1077600081F4000106BF80F400000132013BB5E75F
:107770004FEA41037FEA226C18BF7FEA236C21D0D5
:1077800092EA030F04D092F0000F08BF084670473A
:1077900090EA010F1CBF0020704712F07F4F04D108
:1077A000400028BF40F00040704712F100723CBF1B
:1077B00000F50000704700F0004343F0FE4040F445
:1077C000000070477FEA226216BF08467FEA236303
:1077D0000146420206BF5FEA412390EA010F40F4EE
:1077E000800070474FF0000304E000BF10F000433A
:1077F00048BF40425FEA000C08BF704743F0964321
:1078000001464FF000001CE050EA010208BF70473B
:107810004FF000030AE000BF50EA010208BF7047C2
:1078200011F0004302D5404261EB41015FEA010CD7
:1078300002BF84460146002043F0B64308BFA3F1CF
:107840008053A3F50003BCFA8CF2083AA3EBC253B1
:1078500010DB01FA02FC634400FA02FCC2F12002D0
:10786000BCF1004F20FA02F243EB020008BF20F007
:107870000100704702F1200201FA02FCC2F120026D
:1078800050EA4C0021FA02F243EB020008BF20EA62
:10789000DC7070474FF0FF0C1CEAD0521EBF1CEA90
:1078A000D15392EA0C0F93EA0C0F6FD01A4480EA7E
:1078B000010C400218BF5FEA41211ED04FF0006367
:1078C00043EA501043EA5111A0FB01310CF0004093
:1078D000B1F5000F3EBF490041EAD3715B0040EAB9
:1078E000010062F17F02FD2A1DD8B3F1004F40EB89
:1078F000C25008BF20F00100704790F0000F0CF05C
:10790000004C08BF49024CEA502040EA51207F3A1F
:10791000C2BFD2F1FF0340EAC250704740F40000FA
:107920004FF00003013A5DDC12F1190FDCBF00F0EB
:1079300000407047C2F10002410021FA02F1C2F199
:10794000200200FA02FC5FEA310040F1000053EA35
:107950004C0308BF20EADC70704792F0000F00F083
:10796000004C02BF400010F4000F013AF9D040EA89
:107970000C0093F0000F01F0004C02BF490011F41D
:10798000000F013BF9D041EA0C018FE70CEAD1531B
:1079900092EA0C0F18BF93EA0C0F0AD030F0004C9B
:1079A00018BF31F0004CD8D180EA010000F000404F
:1079B000704790F0000F17BF90F0004F084691F00D
:1079C000000F91F0004F14D092EA0C0F01D1420247
:1079D0000FD193EA0C0F03D14B0218BF084608D110
:1079E00080EA010000F0004040F0FE4040F400005A
:1079F000704740F0FE4040F4400070474FF0FF0CED
:107A00001CEAD0521EBF1CEAD15392EA0C0F93EA33
:107A10000C0F69D0A2EB030280EA010C49024FEA85
:107A2000402037D04FF0805343EA111143EA10133E
:107A30000CF000408B4238BF5B0042F17D024FF4F6
:107A4000000C8B4224BF5B1A40EA0C00B3EB510FD1
:107A500024BFA3EB510340EA5C00B3EB910F24BFBA
:107A6000A3EB910340EA9C00B3EBD10F24BFA3EB3F
:107A7000D10340EADC001B0118BF5FEA1C1CE0D107
:107A8000FD2A3FF650AF8B4240EBC25008BF20F0BA
:107A9000010070470CF0004C4CEA50207F32C2BF0E
:107AA000D2F1FF0340EAC250704740F400004FF0AB
:107AB0000003013A37E792F0000F00F0004C02BFDC
:107AC000400010F4000F013AF9D040EA0C0093F0A6
:107AD000000F01F0004C02BF490011F4000F013B00
:107AE000F9D041EA0C0195E70CEAD15392EA0C0F68
:107AF00008D142027FF47DAF93EA0C0F7FF470AFA0
:107B0000084676E793EA0C0F04D14B023FF44CAFE2
:107B100008466EE730F0004C18BF31F0004CCAD177
:107B200030F000427FF45CAF31F000437FF43CAFB3
:107B30005FE700BF4FF0FF3C06E000BF4FF0010CD5
:107B400002E000BF4FF0010C4DF804CD4FEA4002B7
:107B50004FEA41037FEA226C18BF7FEA236C11D001
:107B600001B052EA530C18BF90EA010F58BFB2EBB4
:107B7000030088BFC81738BF6FEAE17018BF40F034
:107B8000010070477FEA226C02D15FEA402C05D1E8
:107B90007FEA236CE4D15FEA412CE1D05DF8040B6D
:107BA000704700BF844608466146FFE70FB5FFF700
:107BB000C9FF002848BF10F1000F0FBD4DF808EDB8
:107BC000FFF7F4FF0CBF012000205DF808FB00BFA9
:107BD0004DF808EDFFF7EAFF34BF012000205DF803
:107BE00008FB00BF4DF808EDFFF7E0FF94BF012050
:107BF00000205DF808FB00BF4DF808EDFFF7D2FF4D
:107C000094BF012000205DF808FB00BF4DF808ED8F
:107C1000FFF7C8FF34BF012000205DF808FB00BF5C
:107C200042000ED2B2F1FE4F0BD34FF09E03B3EBE6
:107C3000126209D44FEA002343F0004323FA02F012
:107C400070474FF00000704712F1610F01D14202FE
:107C500002D14FF0FF3070474FF00000704700BF77
:107C6000844641EA000313F0030349D1403A23D389
:107C70000B6803604B6843608B688360CB68C360AC
:107C80000B6903614B6943618B698361CB69C36194
:107C90000B6A03624B6A43628B6A8362CB6AC3627C
:107CA0000B6B03634B6B43638B6B8363CB6BC36364
:107CB00040304031403ADBD230320BD30B680360A6
:107CC0004B6843608B688360CB68C36010301031B1
:107CD000103AF3D20C3205D351F8043B40F8043B80
:107CE000043AF9D2043208D0D2071CBF11F8013B84
:107CF00000F8013B01D30B8803806046704700BF4A
:107D0000082A13D38B07B1D010F00303AED0C3F110
:107D10000403D21ADB071CBF11F8013B00F8013B3A
:107D2000A4D331F8023B20F8023B9FE7043AD9D3B1
:107D3000013A11F8013B00F8013BF9D20B780370CE
:107D40004B7843708B7883706046704700B583B082
:107D50000E4B5A6942F001025A615B6903F001035C
:107D60000193019B002201210C2000F05FFB0C20FD
:107D700000F094FB012202210F2000F057FB0F209E
:107D800000F08CFB03B05DF804FB00BF0010024064
:107D900070B588B0002404940594069407941B4B96
:107DA0009A6942F020029A619A6902F020020192D7
:107DB000019A9A6942F004029A619A6902F00402F7
:107DC0000292029A9A6942F008029A619B6903F052
:107DD00008030393039B0E4D22461821284600F00A
:107DE0008BFF012604960594069404A9284600F00A
:107DF00071FE18230493059606940223079304A9A1
:107E0000284600F067FE08B070BD00BF00100240B9
:107E1000000C014072B6FEE700B595B028220021A3
:107E20000DEB02000AF0F6FA002305930693079380
:107E300008930993019302930393049301220A92F6
:107E40004FF480330B930E920222119212934FF44F
:107E5000E01313930AA801F093FFC0B90F23059311
:107E600002210691002307934FF480620892099340
:107E700005A802F0C5F960B910230193002304930B
:107E800001A802F099FA30B915B05DF804FBFFF7CC
:107E9000C1FFFFF7BFFFFFF7BDFF08B501F0F6FE1A
:107EA00000F08EFAFFF7B8FFFFF772FFFFF74EFF03
:107EB00000F00CF800F0A0F900F0F6F909F056F81F
:107EC00000F028F80AF038F9FEE7000008B50F487E
:107ED0000F4B03604FF4827343604FF48063836001
:107EE0000023C3600222026143614FF40072826189
:107EF0001822C2610362436283620A23C36202F0F2
:107F000063FB00B908BDFFF785FFFBE71C070020F6
:107F10000030014008B50E480E4B03604FF48273E9
:107F2000436000238360C3600361012242614FF418
:107F3000007282610822C2610362436283620A2383
:107F4000C36202F041FB00B908BDFFF763FFFBE726
:107F5000740700200038004070B588B00446002344
:107F600004930593069307930368464A934204D00B
:107F7000454A934247D008B070BD444B9A6942F4D9
:107F800080529A619A6902F480520092009A9A692A
:107F900042F004029A619B6903F004030193019B80
:107FA000202304930223059303230793384E04A947
:107FB000304600F08FFD402304930025059506957B
:107FC00004A9304600F086FD3248334B036045601B
:107FD00085608023C3600561456185614FF48053EE
:107FE000C36100F093FA58B92A4BE3645C62012242
:107FF0001146232000F01AFA232000F04FFABAE7C6
:10800000FFF708FFF0E7214BDA6942F48042DA61BA
:10801000DA6902F480420292029A9A6942F00802F6
:108020009A619B6903F008030393039B4FF4204379
:108030000493022305930323079304A9174800F030
:1080400049FD1748174B03601023436000238360EA
:108050008022C2600361436183614FF48053C36136
:1080600000F054FA58B90E4BA3645C620222114628
:10807000242000F0DBF9242000F010FA7BE7FFF762
:10808000C9FEF0E700300140003800400010024017
:1080900000080140940600201C000240000C014032
:1080A000D80600205800024082B00E4B9A6942F078
:1080B00001029A619A6902F001020092009ADA695B
:1080C00042F08052DA61DB6903F080530193019B37
:1080D000054A536823F0E06343F00073536002B035
:1080E000704700BF0010024000000140FEE7FEE7BD
:1080F000FEE7FEE7FEE770477047704708B500F0FF
:1081000071F908BD08B5024800F0DEFA08BD00BFED
:108110009406002008B5024800F0D6FA08BD00BF5A
:10812000D806002008B5024801F05FFB08BD00BF7B
:108130007011002008B509F087FD024802F053FCD9
:1081400008BD00BFEC07002008B5024802F058FB4C
:1081500008BD00BF1C07002008B5024802F050FB14
:1081600008BD00BF7407002010B51A4B1B78EF2B19
:1081700018D0194A128819498B540B78FE2B1FD03E
:10818000154B00221A80164802F048FF00240122F5
:108190001049134803F05FF818B10134B4F5005FDB
:1081A000F5D310BD0D4B1B78FE2BECD10B4A51784B
:1081B0000C4B197092785A70074B00221A80E2E734
:1081C000531C9BB2044A1380132BDCD913460022A4
:1081D0001A80D8E7E8070020E4070020D007002035
:1081E00034080020CC070020014B024A9A607047F7
:1081F00000ED00E00070000800B587B00023029396
:10820000039304930593009301931548154A026064
:1082100047224260836040F2E732C26003618361BB
:1082200002F0D8FC90B94FF48053029302A90C4895
:1082300002F008FD68B900230093019369460848DD
:1082400002F06EFD40B907B05DF804FBFFF7E2FDF8
:10825000E9E7FFF7DFFDEEE7FFF7DCFDF3E700BF3F
:10826000EC0700200008004002680E4B9A4200D044
:10827000704700B583B003F50233DA6942F00402B7
:10828000DA61DB6903F004030193019B0022012101
:108290001E2000F0CBF81E2000F000F903B05DF8BE
:1082A00004FB00BF0008004008B50D480D4B0360FB
:1082B0004FF46123436000238360C36003610C2299
:1082C00042618361C36102F0F7FD28B901220649CA
:1082D000034802F0C0FF08BDFFF79CFDF6E700BFB2
:1082E0003408002000380140E807002030B587B08E
:1082F0000023029303930493059302681B4B9A4255
:1083000001D007B030BD03F558439A6942F480426A
:108310009A619A6902F480420092009A9A6942F046
:1083200004029A619B6903F004030193019B4FF4DB
:108330000073029302230393032305930C4D02A9B8
:10834000284600F0C7FB4FF4806302930024039497
:10835000049402A9284600F0BDFB224621462520B0
:1083600000F064F8252000F099F8CAE700380140D1
:108370000008014010B504460E4B18784FF47A738C
:10838000B3FBF0F30C4A1068B0FBF3F000F094F884
:1083900068B90F2C01D901200AE0002221464FF0D4
:1083A000FF3000F043F8054B1C60002000E0012086
:1083B00010BD00BF040000200000002008000020C5
:1083C00008B5074A136843F010031360052000F056
:1083D0001BF80020FFF7CEFFFFF766FE002008BD68
:1083E00000200240034A1168034B1B780B441360C2
:1083F000704700BF7808002004000020014B186877
:10840000704700BF78080020074AD36823F4E06370
:108410001B041B0C000200F4E060034343F0BF6345
:1084200043F40033D360704700ED00E000B5194B12
:10843000DB68C3F30223C3F1070CBCF1040F28BFB0
:108440004FF0040C03F1040EBEF1060F18D9033BE4
:108450004FF0FF3E0EFA0CFC21EA0C0199400EFA97
:1084600003F322EA0303194300280BDB0901C9B215
:1084700000F1604000F5614080F800135DF804FBF6
:108480000023E5E700F00F000901C9B2024B1954BF
:10849000F4E700BF00ED00E014ED00E0002807DB8A
:1084A00000F01F02400901239340024A42F82030A5
:1084B000704700BF00E100E00138B0F1807F0BD2CF
:1084C0004FF0E0235861054AF02182F82310002084
:1084D000986107221A6170470120704700ED00E0A3
:1084E00030B40124056CAC40C56B6C6004686360FB
:1084F0004368102B05D0036899600368DA6030BCCC
:10850000704703689A600368D960F8E760B310B4F5
:1085100002460168154B0B441548A0FB03031B09D9
:108520009B001364134BD363022382F82130086845
:1085300020F47F5020F03000536894682343D468BF
:108540002343146923435469234394692343D4691F
:10855000234303430B6000209063012382F8213002
:1085600082F8200010BC704701207047F8FFFDBF63
:10857000CDCCCCCC0000024038B5044690F82000A9
:10858000012831D0012084F8200094F8210001282E
:1085900004D0002384F82030022038BD022084F863
:1085A00021000020A0632568286820F001002860D1
:1085B0002046FFF795FFE36A5BB12268136843F03A
:1085C0000E0313602268136843F001031360002058
:1085D000E3E72268136823F004031360226813683A
:1085E00043F00A031360EDE70220D6E790F821304C
:1085F000022B06D004238363002380F8203001205F
:1086000070470268136823F00E0313600268136852
:1086100023F001031360036CC16B012202FA03F320
:108620004B6080F82120002380F8203018467047E6
:1086300008B590F82130022B03D004238363012076
:1086400008BD0268136823F00E0313600268136804
:1086500023F0010313600368194A934214D01432C3
:1086600093421FD0143293421ED0143293421ED034
:10867000143293421ED01432934202D04FF08072D3
:1086800003E04FF4801200E001220E4B5A600123F8
:1086900080F82130002380F82030436B6BB198477D
:1086A0000020CDE71022F0E74FF48072EDE74FF4A1
:1086B0008052EAE74FF48032E7E70020C0E700BFCE
:1086C000080002400000024038B5C36B1A68046815
:1086D0002568016C04238B40134235D015F0040F3C
:1086E00032D0236813F0200F03D1236823F0040352
:1086F00023600368434A934214D01432934218D043
:108700001432934217D01432934217D0143293424A
:1087100017D01432934202D04FF0806203E04FF43E
:10872000800200E00422384B5A60C36A03B19847C4
:1087300038BD4022F7E74FF48062F4E74FF48042FF
:10874000F1E74FF48022EEE702238B4013423CD046
:1087500015F0020F39D0236813F0200F06D12368DB
:1087600023F00A032360012380F821300368254A9F
:10877000934214D0143293421CD0143293421BD033
:10878000143293421BD0143293421BD014329342C2
:1087900002D04FF0007203E04FF4001200E002221A
:1087A000194B5A60002380F82030836A002BBFD019
:1087B0009847BDE72022F3E74FF40072F0E74FF44B
:1087C0000052EDE74FF40032EAE7082303FA01F123
:1087D0001142ADD015F0080FAAD0236823F00E0384
:1087E0002360026CC16B012303FA02F24A608363C7
:1087F00080F82130002380F82030036B002B97D0C5
:10880000984795E70800024000000240044B002210
:10881000DA61044A136943F0010313610180704770
:108820008008002000200240194BDB6813F0100381
:1088300005D0184AD36943F00203D3611023144AC8
:10884000D26812F0040F06D01249CA6942F0010240
:10885000CA6143F004030E4AD26912F0010F09D035
:108860000C49CA6942F00402CA610949CA6922F086
:108870000102CA6140F20112934202D0044AD3605D
:108880007047034AD36923F00103D361704700BFE7
:1088900000200240800800200A4B1B6913F0800F63
:1088A0000BD0084B084A5A6002F188325A601B69A3
:1088B00013F0800F03D10020704700207047012083
:1088C000704700BF0020024023016745034A136937
:1088D00043F0800313610020704700BF0020024076
:1088E00038B50446FFF78AFD0546164BDB6813F0E2
:1088F000010F0AD0B4F1FF3FF7D024B1FFF77EFD9E
:10890000401BA042F1D903201BE00E4BDB6813F0A3
:10891000200F02D00B4B2022DA600A4BDB6813F0E9
:10892000100F0BD1074BDB6913F0010F06D1054B7C
:10893000DB6813F0040F01D1002002E0FFF774FFA1
:10894000012038BD002002402DE9F8431E46244B8B
:108950001B7E012B41D004460F469046204B01223E
:108960001A764CF25030FFF7BBFF034678BB012C60
:1089700008D0022C03D04FF004091C4607E04FF04A
:108980000209FAE74FF00109F7E70134E4B24C4578
:108990001DD22101C1F12002A1F1200328FA01F129
:1089A00006FA02F2114326FA03F3194389B207EBE0
:1089B0004400FFF72BFF4CF25030FFF791FF094BBB
:1089C0001D6925F001051D6103460028DDD0044A1C
:1089D000002111761846BDE8F8830223FAE700BFAC
:1089E0008008002000200240064B0022DA61064B7E
:1089F0001A6942F004021A611A6942F040021A61CF
:108A0000704700BF8008002000200240064B002273
:108A1000DA61064B1A6942F002021A6158611A695A
:108A200042F040021A617047800800200020024096
:108A3000264B1B7E012B46D070B505460E46234BB8
:108A400001221A760368022B20D04CF25030FFF737
:108A500047FF90BB4FF0FF333360AC680121EA68F9
:108A6000AB6803EB8223A34228D92046FFF7CEFF51
:108A70004CF25030FFF734FF154A136923F002031C
:108A800013610146B8B904F58064E8E74CF2503050
:108A9000FFF726FF08B1012110E00120FFF7A4FF36
:108AA0004CF25030FFF71CFF0146094A136923F0CE
:108AB0000403136102E0346000E00121034B002253
:108AC0001A76084670BD02210846704780080020CB
:108AD0000020024070B582B00024A446A6E0804D7C
:108AE000AA4210D007D97F4DAA420CD005F5803597
:108AF000AA4208D013E0A5F58015AA4203D005F5D7
:108B00007025AA4207D18A68002A58D0012A51D07C
:108B10004361082403E0A5F58015AA42F3D0BEF115
:108B2000FF0F4ED80646BEF1FF0F4CD84FEA8C021D
:108B300033680F25954023EA050304FA02F2134334
:108B400033604B6813F0805F6ED0674B9A6942F0D8
:108B500001029A619B6903F001030193019B4FEAB3
:108B60009C02951C614B53F825600CF003039D009B
:108B70000F23AB4026EA03065D4B984229D003F54C
:108B80008063984200F08E8003F58063984200F085
:108B90008B8003F58063984219D004231AE0CC68D7
:108BA000BDE7CC680434BAE7CC680834B7E7CC68D2
:108BB0000C34B4E703610824B1E70024AFE70424D0
:108BC000ADE7061DAFE7ACF108029200B0E7032362
:108BD00000E00023AB4033430232444D45F82230DD
:108BE0004B6813F4803F61D0424A136843EA0E0396
:108BF00013604B6813F4003F5ED03E4A536843EA6B
:108C00000E0353604B6813F4801F5BD0394A93689E
:108C100043EA0E0393604B6813F4001F58D0354AA3
:108C2000D36843EA0E03D3600CF1010C0A6832FAF0
:108C30000CF353D0012303FA0CF302EA030E33EAD8
:108C40000202F1D14A68122A3FF649AF122A3FF6D2
:108C500066AF01A555F822F0078B00089F8B00082E
:108C6000A98B0008BB8B00081F8B00081F8B000816
:108C70001F8B00081F8B00081F8B00081F8B00082C
:108C80001F8B00081F8B00081F8B00081F8B00081C
:108C90001F8B00081F8B00081F8B0008A38B000888
:108CA000AF8B0008012395E7022393E7114A13686D
:108CB00023EA0E0313609CE70E4A536823EA0E036F
:108CC00053609FE70B4A936823EA0E039360A2E781
:108CD000084AD36823EA0E03D360A5E702B070BD4B
:108CE000000022100000311000100240000001407E
:108CF00000080140000401400AB101617047090405
:108D00000161704738B512F4804F44D00468B4F85C
:108D100050309BB291F800C003EBCC03023304EB5C
:108D20004303B3F80044C4F309048B69A34228D376
:108D30001B1B8B618B697BB9056835F82C309BB2A6
:108D400023F4804323F0700383F4005343F400437F
:108D500043F0800325F82C3012F0400F0ED002684B
:108D60000D7832F825309BB223F4E04323F07003F2
:108D700043F4004343F0C00322F8253024B92046D1
:108D800038BD00238B61D5E723460A89496900680D
:108D900003F044FAF3E70468B4F850309BB291F85A
:108DA00000C003EBCC03063304EB4303B3F80044E9
:108DB000C4F309048B69A3422FD31B1B8B618B69FE
:108DC0007BB9056835F82C309BB223F4804323F03F
:108DD000700383F4005343F4004343F0800325F809
:108DE0002C3012F0400F0FD1026891F800C032F819
:108DF0002C309BB223F4E04323F0700343F4004390
:108E000043F0C00322F82C30002CB8D023464A8906
:108E10004969006803F002FAB1E700238B61CEE7ED
:108E200070B586B0002800F08580044690F8A9321D
:108E3000EBB1032384F8A932206802F038FA254602
:108E400055F8106BEC460FCDACE80F002B68CCF852
:108E50000030231D0ECB304602F019FA054658B1FA
:108E6000022384F8A9320125284606B070BD80F897
:108E7000A83208F04FF9DCE70021206802F021FA5F
:108E80002B461AE05A1C02EB820104EBC1010120BF
:108E9000487002EB820104F8313003EB830104EBEC
:108EA000C101CB8602EB820C04EBCC0C00208CF8C9
:108EB00003008863C8630864D3B261688B42E1D35E
:108EC00016E005EB850304EBC303002283F8692158
:108ED00083F8685183F86B21C3F87821C3F87C21AB
:108EE00005EB850304EBC303C3F880210135EDB224
:108EF000A942E6D8254655F8106BEC460FCDACE8F4
:108F00000F002B68CCF80030231D0ECB304602F04A
:108F1000DAF9054620B1022384F8A9320125A3E736
:108F2000002384F82430012384F8A932206802F059
:108F300000FD99E7012597E738B590F8A832012B95
:108F400011D00446012580F8A852006802F0A6F965
:108F50002946204608F0E5F9206802F0E8FC0020E8
:108F600084F8A80238BD0220FCE770B505460C461F
:108F7000164612F0400F00F00D810268B2F8503032
:108F80009BB2097803EBC103023302EB4303B3F84E
:108F90000024C2F30902A369934252D99B1AA36128
:108FA000A369002B6AD16378002B4DD12B68B3F8ED
:108FB000502092B2134403EB0111B1F804349BB278
:108FC00023F4F8439BB2A1F80434B1F804346FEAF7
:108FD00043436FEA53439BB2A1F804342B68627891
:108FE000002A3ED1B3F8502092B21344227803EB0A
:108FF0000213B3F80C2492B222F4F84292B2A3F80E
:109000000C24B3F80C246FEA42426FEA524292B247
:10901000A3F80C242178284608F0B0F816F4804F05
:1090200041D02A68217832F821309BB223F4E04302
:1090300023F0700343F4404343F0800322F82130CF
:1090400031E00023A361ABE7012BC7D12B68B3F854
:10905000502092B2134403EB01110023A1F8043411
:10906000BCE7012AD6D1B3F8502092B2134422783B
:1090700003EB02130022A3F80C24CBE716F4804F75
:109080000DD0286830F821309BB223F4E04323F060
:10909000700343F4404343F0800320F8213094F8F8
:1090A0002430012B12D02A68217832F821309BB26B
:1090B00023F4E04323F0400383F0300343F4004300
:1090C00043F0800322F82130002070BD636913440F
:1090D0006361E3691344E361216A236999421FD301
:1090E000C91A21626278002A3FD12A68B2F850106A
:1090F00089B20A44217802EB0112EBB9B2F80414E8
:1091000089B221F4F84189B2A2F80414B2F8041427
:109110006FEA41416FEA514189B2A2F8041426E096
:1091200021B9002384F824301346DBE7002384F8B8
:10913000243023620B46D5E73E2B09D8590813F09B
:10914000010F00D00131890289B2A2F804140EE0A7
:10915000590913F01F0F00D101396FEAC1616FEA9D
:10916000514189B2A2F8041401E0012A06D09BB251
:1091700022896169286802F0E4FB94E72A68B2F862
:10918000501089B20A44217802EB011299B2A2F878
:109190000414ECE70268B2F850309BB2097803EB94
:1091A000C103063302EB4303B3F80024C2F3090200
:1091B000A369934253D39B1AA361A369002B6BD17C
:1091C0006378002B4ED12B68B3F8502092B2134431
:1091D00003EB0111B1F804349BB223F4F8439BB2C2
:1091E000A1F80434B1F804346FEA43436FEA5343FF
:1091F0009BB2A1F804342B686278002A3FD1B3F8FF
:10920000502092B21344227803EB0213B3F80C24DB
:1092100092B222F4F84292B2A3F80C24B3F80C24D0
:109220006FEA42426FEA524292B2A3F80C242178CC
:10923000284607F0A3FF16F4804F7FF434AF2A6866
:10924000217832F821309BB223F4E04323F07003FD
:1092500043F4404343F0800322F8213023E7002306
:10926000A361AAE7012BC6D12B68B3F8502092B2B4
:10927000134403EB01110023A1F80434BBE7012AD6
:10928000D5D1B3F8502092B21344227803EB0213E5
:109290000022A3F80C24CAE716F4804F0DD12868E9
:1092A00030F821309BB223F4E04323F0700343F401
:1092B000404343F0800320F8213094F82430012B00
:1092C0007FF4F1AE636913446361E3691344E361BE
:1092D000216A236999421FD3C91A21622A686178D9
:1092E00000293ED1B2F8501089B20A44217802EB2D
:1092F0000112EBB9B2F80C1489B221F4F84189B229
:10930000A2F80C14B2F80C146FEA41416FEA514113
:1093100089B2A2F80C1426E021B9002384F8243085
:109320001346DBE70023236284F824300B46D5E79D
:109330003E2B09D8590813F0010F00D001318902E2
:1093400089B2A2F80C140EE0590913F01F0F00D1D6
:1093500001396FEAC1616FEA514189B2A2F80C1478
:1093600001E0012906D09BB262896169286802F098
:10937000E8FA98E6B2F8501089B20A44217802EB74
:10938000011299B2A2F80C14EDE72DE9F04105465F
:109390002868B0F8443013F4004F00F00F82B0F8A2
:1093A0004440A3B214F00F0440F0D88013F0100F23
:1093B00061D003889AB213F4006F40F0938012F4E6
:1093C000004FE5D0038823F070031B051B0D43F00D
:1093D000800303802868B0F850309BB295F868216C
:1093E00003EBC203063300EB4303B3F80034C3F3CB
:1093F0000903C5F884318BB1D5F87C1171B1B5F88A
:109400006E2102F00BFFD5F88421D5F87C3113448E
:10941000C5F87C310021284607F0A4FE2B681A8885
:1094200012F4006FB4D1B3F8502092B21344D5F8BF
:109430007821002A79D1B3F80C2492B222F4F842B0
:1094400092B2A3F80C24B3F80C246FEA42426FEAFC
:10945000524292B2A3F80C242A6813889BB223F4D8
:10946000804323F0700383F4405343F4004343F0FC
:10947000800313808CE703889BB223F4E14323F03D
:1094800070036FEA43436FEA53439BB203802A6839
:10949000B2F850309BB295F8281003EBC1030233A9
:1094A00002EB4303B3F80034C3F309036B64EA6BC4
:1094B0001344EB630021284607F060FE95F8243042
:1094C000002B3FF465AF2B6C002B7FF461AF95F858
:1094D00024302A6843F08003A2F84C30002385F83A
:1094E000243055E7B0F850309BB295F8682103EB73
:1094F000C203063300EB4303B3F80034C3F309039C
:10950000C5F88431B5F86E2105F52C7102F086FEA0
:109510002A68138823F070031B051B0D43F080039A
:109520001380284607F016FE32E73E2A09D8510874
:1095300012F0010F00D001318A0292B2A3F80C247C
:109540008AE7510912F01F0F00D101396FEAC16299
:109550006FEA524292B2A3F80C247DE730F824302F
:109560009EB213F4004F4FD116F0800F3FF410AFAE
:10957000621C02EB820105EBC101286830F824303F
:109580009BB223F4E14323F070036FEA43436FEA95
:1095900053439BB220F82430CB78032B07D033B150
:1095A000022B40F0068116F4807F40F0028128688B
:1095B000B0F850309BB2621C02EB820215F83260A8
:1095C00003EBC603023300EB4303B3F80034C3F3E9
:1095D000090304EB840205EBC202126C9A4240F2CA
:1095E000D48004EB840705EBC707D21A3A6404EB76
:1095F000840205EBC202126C002A40F0CD80314695
:10960000284607F0BBFDC3E630F8243023F0700392
:109610001B051B0D43F0800320F8243004EB84016C
:10962000C90001F5B47105EB010804EB840305EBF7
:10963000C30393F87431002B42D12868B0F850303E
:109640009BB204EB840205EBC20292F8682103EBA3
:10965000C203063300EB4303B3F80074C7F30907F2
:1096600017BB04EB840305EBC303D3F884213A440E
:10967000C3F88421D3F87C213A44C3F87C21D3F881
:1096800080313BB104EB840305EBC303D3F878319D
:109690009F4275D204EB840305EBC30393F8681172
:1096A000284607F05FFD5FE704EB840105EBC1018D
:1096B0003B46B1F86E21D1F87C1102F0AFFDD0E746
:1096C00004EB840305EBC30393F86B31022B35D015
:1096D000296804EB840205EBC20292F8680131F8B4
:1096E00020309BB223F4E04323F0700343F40043A3
:1096F00043F0C00321F82030286892F8682130F840
:10970000223013F4804F20D0B0F850309BB203EBDE
:10971000C203023300EB4303B3F80074C7F3090735
:10972000002F9ED004EB840105EBC1013B46B1F84C
:109730007021D1F87C1102F071FD92E7324641466A
:109740002846FFF7DFFA07468BE7B0F850309BB2A8
:1097500003EBC203063300EB4303B3F80074C7F313
:109760000907002F3FF47DAF04EB840105EBC10135
:109770003B46B1F87221D1F87C1102F04FFD70E741
:109780004146286802F0F1F8EEE604EB840205EBAE
:10979000C202002717642AE704EB840205EBC20229
:1097A000D66B1E44D663546C2344536402F0DDF838
:1097B000EEE532462846FFF7D8FBE9E50020BDE894
:1097C000F08190F8A832012B0DD010B5044601238A
:1097D00080F8A83280F82410006802F0A2F8002077
:1097E00084F8A80210BD0220704710B584B004466A
:1097F000006802F0A0F810F4004F47D1206802F092
:109800009AF810F4806F45D1206802F094F810F4B3
:10981000804F08D02268B2F844309BB223F48043D2
:109820009BB2A2F84430206802F085F810F4005F83
:1098300008D02268B2F844309BB223F400539BB2A4
:10984000A2F84430206802F076F810F4805F32D13C
:10985000206802F070F810F4006F78D1206802F0F0
:109860006AF810F4007F40F09D80206802F063F8F1
:1098700010F4807F08D02268B2F844309BB223F401
:1098800080739BB2A2F8443004B010BD2046FFF7AD
:109890007CFDB3E72268B2F844309BB223F48063C6
:1098A0009BB2A2F84430204607F079FC0021204604
:1098B000FFF787FFA8E72268B2F840309BB223F099
:1098C00004039BB2A2F840302268B2F840309BB249
:1098D00023F008039BB2A2F84030204607F082FC38
:1098E0002268B2F844309BB223F480539BB2A2F8B2
:1098F0004430ADE7226832F8231004AA02EB430299
:1099000022F8101C0133DBB2072BF3D92268B2F81E
:1099100040309BB243F00103A2F840302268B2F815
:1099200040309BB223F001039BB2A2F84030236881
:10993000B3F8442012F4806FF9D0B3F8442092B207
:1099400022F4806292B2A3F8442000230BE00023AB
:10995000DAE7226804A901EB430131F8101C22F870
:1099600023100133DBB2072BF3D92268B2F8403061
:109970009BB243F00803A2F840302268B2F84430AA
:109980009BB223F400639BB2A2F844302268B2F881
:1099900040309BB243F00403A2F84030204607F069
:1099A00011FC5BE72268B2F844309BB223F40073E9
:1099B0009BB2A2F84430204607F0EBFB55E710B508
:1099C00004468C4611F0800F2AD101F0070000EB0D
:1099D0008001C90001F5B47E04EB0E0100EB8000AC
:1099E00004EBC0004FF0000E80F869E10CF0070CAA
:1099F00081F800C00A61CB704A780AB1A1F80EC0A4
:109A0000022B19D094F8A832012B18D0012384F826
:109A1000A832206801F068FC002084F8A80210BD7C
:109A200001F00700013000EB800104EBC1014FF0B1
:109A3000010E81F801E0D9E700230B71E2E7022073
:109A4000EDE710B504460B4611F0800F1FD101F071
:109A5000070202EB8201C90001F5B471014402EB77
:109A6000820200EBC202002082F8690103F00703C2
:109A70000B7094F8A832012B13D0012384F8A8327C
:109A8000206801F0EDFD002084F8A80210BD01F06F
:109A90000702013202EB820100EBC1010120487094
:109AA000E4E70220F2E710B501F0070404EB8401BB
:109AB000C90001F5B471014404EB840C00EBCC0C3B
:109AC000CCF87C21CCF880310023CCF884318CF8A0
:109AD00069318CF8684124B9006801F046FF002024
:109AE00010BD006801F041FFF9E710B501F007046F
:109AF00004F1010C0CEB8C0100EBC10104EB840EB2
:109B000000EBCE0ECEF83C20CEF8403001228EF88D
:109B10004C20CEF848300023CEF844304A700CEB8D
:109B20008C0C00F83C4024B9006801F01EFF0020B6
:109B300010BD006801F019FFF9E738B501F007051D
:109B40004268954231D804460B4611F0800F1ED171
:109B500001EB8101C90001F5B471014403EB8303FA
:109B600000EBC303002283F8692101238B700D7081
:109B700094F8A832012B1AD0012384F8A832206867
:109B800001F059FE5DB1002084F8A80238BD6B1CBD
:109B900003EB830100EBC10101224A70E5E704F504
:109BA0002C71206801F0CBFEEDE70120EEE70220EA
:109BB000ECE70B4601F00F014268914230D810B536
:109BC000044613F0800F21D103F0070202EB82015B
:109BD000C90001F5B471014402EB820200EBC2023C
:109BE000002082F8690100228A7003F007030B70DD
:109BF00094F8A832012B15D0012384F8A8322068EC
:109C000001F03EFE002084F8A80210BD03F0070218
:109C1000013202EB820100EBC10101204870E2E752
:109C2000012070470220F0E711F0800F0BD001F007
:109C30000701013101EB810100EBC10152B90A7347
:109C4000CB800020704701EB8101C90001F5B471A0
:109C50000144F3E701220A730B811B0C4B81F0E7EF
:109C600082B0084B1B68084AA2FB03235B0A00FB77
:109C700003F3019300BF019B5A1E0192002BF9D1FF
:109C800002B0704700000020D34D621070B5FEF79F
:109C9000B5FB0446364A136843F001031360344BA6
:109CA0001B6813F0020F07D1FEF7A8FB001B022868
:109CB000F5D90324204670BD2D4D2B6823F0F80301
:109CC00043F080032B60FEF799FB044600236B6092
:109CD000274B5B6813F00C0F08D0FEF78FFB001BBF
:109CE00041F288339842F3D90324E3E7214B224A17
:109CF0001A60224B1868FEF73DFB044608B10124A8
:109D0000D8E7FEF77BFB0546194A136823F08073FA
:109D10001360174B1B6813F0007F06D0FEF76EFB35
:109D2000401B0228F5D90324C4E7114E00237360B9
:109D3000FEF764FB0546336823F4102333600C4BB5
:109D40001B6813F4003F06D0FEF758FB401B642845
:109D5000F5D90324AEE7064B1A6822F480221A6074
:109D60005A6A42F080725A6200229A60A2E700BFEB
:109D7000001002400000002000127A0008000020BD
:109D8000002800F0F18170B582B00446036813F03A
:109D9000010F2CD0994B5B6803F00C03042B1DD0F2
:109DA000964B5B6803F00C03082B12D06368B3F585
:109DB000803F41D0002B55D103F1804303F504339C
:109DC0001A6822F480321A601A6822F480221A601B
:109DD00037E08A4B5B6813F4803FE7D0874B1B6802
:109DE00013F4003F03D06368002B00F0BF812368A9
:109DF00013F0020F75D0814B5B6813F00C0F5FD02E
:109E00007E4B5B6803F00C03082B54D02369002BB6
:109E100000F08A807A4B01221A60FEF7EFFA0546BD
:109E2000764B1B6813F0020F75D1FEF7E7FA401B63
:109E30000228F5D903209EE1704A136843F4803369
:109E40001360636843B3FEF7D9FA05466B4B1B6892
:109E500013F4003FCBD1FEF7D1FA401B6428F5D9AB
:109E6000032088E1B3F5A02F09D0644B1A6822F4CF
:109E700080321A601A6822F480221A60E1E703F146
:109E80008043A3F53C331A6842F480221A601A68B2
:109E900042F480321A60D4E7FEF7B0FA0546574B19
:109EA0001B6813F4003FA2D0FEF7A8FA401B6428F9
:109EB000F5D903205FE1514B5B6813F4803FA5D1D6
:109EC0004E4B1B6813F0020F03D02369012B40F0A7
:109ED0004F814A4A136823F0F803616943EAC103DA
:109EE0001360236813F0080F33D0A369002B5CD0F4
:109EF000434B0122C3F88024FEF780FA05463F4B0E
:109F00005B6A13F0020F21D1FEF778FA401B02289A
:109F1000F5D903202FE1394A136823F0F80361696A
:109F200043EAC1031360DCE7354B00221A60FEF7F9
:109F300065FA0546314B1B6813F0020FD1D0FEF7CE
:109F40005DFA401B0228F5D9032014E10120FFF738
:109F500087FE236813F0040F00F09680274BDB691F
:109F600013F0805F34D1254BDA6942F08052DA6118
:109F7000DB6903F080530193019B0125214B1B6892
:109F800013F4807F26D0E368012B3DD0002B53D102
:109F900003F1804303F504331A6A22F001021A62C6
:109FA0001A6A22F004021A6233E0154B0022C3F849
:109FB0008024FEF723FA0546104B5B6A13F0020F6C
:109FC000C7D0FEF71BFA401B0228F5D90320D2E0C8
:109FD0000025D3E70B4A136843F480731360FEF740
:109FE0000DFA0646074B1B6813F4807FCBD1FEF7B2
:109FF00005FA801B6428F5D90320BCE0001002405C
:10A0000000004242007000405F4A136A43F00103BF
:10A010001362E36833B3FEF7F1F906465A4B1B6A45
:10A0200013F0020F2FD1FEF7E9F9801B41F28833BC
:10A030009842F3D903209EE0052B09D0524B1A6AAF
:10A0400022F001021A621A6A22F004021A62E0E7A0
:10A050004D4B1A6A42F004021A621A6A42F0010277
:10A060001A62D6E7FEF7CAF90646474B1B6A13F099
:10A07000020F08D0FEF7C2F9801B41F288339842E4
:10A08000F3D9032077E0E5B9E369002B72D03E4AAB
:10A09000526802F00C02082A56D0022B17D03B4B14
:10A0A00000221A66FEF7AAF90446374B1B6813F024
:10A0B000007F47D0FEF7A2F9001B0228F5D9032044
:10A0C00059E0314AD36923F08053D361DCE72F4B49
:10A0D00000221A66FEF792F905462B4B1B6813F017
:10A0E000007F06D0FEF78AF9401B0228F5D903202D
:10A0F00041E0236AB3F5803F1AD023494B6823F42B
:10A100007413226A606A024313434B601F4B01229F
:10A110001A66FEF773F904461B4B1B6813F0007FA9
:10A120000ED1FEF76BF9001B0228F5D9032022E0BF
:10A13000154A536823F40033A1680B435360DCE7EE
:10A14000002018E0002016E0012B16D00E4B5B68B3
:10A1500003F48031226A914211D103F47013626AD0
:10A1600093420ED1002006E001207047012002E05A
:10A17000012000E0002002B070BD0120FBE70120BB
:10A18000F9E70120F7E700BF00100240000042425B
:10A1900086B0174B0FCB0DF1180C0CE90F0040F2F5
:10A1A0000123ADF80430134B5B6803F00C02082A5E
:10A1B00002D0114806B07047C3F3834218326A4494
:10A1C00012F8100C13F4803F0DD00A4B5B68C3F3F8
:10A1D000404318336B4413F8143C074A02FB00F069
:10A1E000B0FBF3F0E6E7054B03FB00F0E2E700BF4E
:10A1F000C82601080010024000127A0000093D0044
:10A20000002800F0A08070B50D460446524B1B6834
:10A2100003F007038B420BD24F4A136823F0070366
:10A220000B431360136803F007038B4240F08D80EB
:10A23000236813F0020F17D013F0040F04D0474A1D
:10A24000536843F4E0635360236813F0080F04D0AD
:10A25000424A536843F460535360404A536823F0C2
:10A26000F003A1680B435360236813F0010F31D052
:10A270006368012B20D0022B25D0384A126812F0D7
:10A28000020F64D035494A6822F0030213434B6041
:10A29000FEF7B4F80646314B5B6803F00C036268C6
:10A2A000B3EB820F16D0FEF7A9F8801B41F288337A
:10A2B0009842F0D9032045E0284A126812F4003F82
:10A2C000E0D101203EE0254A126812F0007FD9D18A
:10A2D000012037E0204B1B6803F00703AB420AD98B
:10A2E0001D4A136823F007032B431360136803F020
:10A2F0000703AB422DD1236813F0040F06D0174A91
:10A30000536823F4E063E1680B435360236813F060
:10A31000080F07D0114A536823F46053216943EAB8
:10A32000C1035360FFF734FF0C4B5B68C3F30313A7
:10A330000B4AD35CD8400B4B18600B4B1868FEF7E8
:10A3400019F8002070BD012070470120FAE70120B4
:10A35000F8E70120F6E700BF0020024000100240AD
:10A36000B02601080000002008000020014B1868FA
:10A37000704700BF0000002008B5FFF7F7FF044B4F
:10A380005B68C3F30223034AD35CD84008BD00BF17
:10A3900000100240C026010808B5FFF7E7FF044B94
:10A3A0005B68C3F3C223034AD35CD84008BD00BF37
:10A3B00000100240C026010870B582B00446036850
:10A3C00013F0010F36D03F4BDB6913F0805F49D1AA
:10A3D0003C4BDA6942F08052DA61DB6903F080536A
:10A3E0000193019B0125384B1B6813F4807F3BD000
:10A3F000344B1B6A13F4407313D0626802F440724A
:10A400009A420ED02F4A136A23F440702F49012636
:10A41000C1F840640026C1F84064106213F0010FD7
:10A4200036D1284A136A23F4407361680B431362E0
:10A43000002D3ED1236813F0020F06D0214A536845
:10A4400023F44043A1680B435360236813F0100FBB
:10A4500034D01C4A536823F48003E1680B435360F3
:10A4600000202CE00025BEE7174A136843F48073F0
:10A470001360FDF7C3FF0646134B1B6813F4807F80
:10A48000B6D1FDF7BBFF801B6428F5D9032016E089
:10A49000FDF7B4FF06460B4B1B6A13F0020FC0D149
:10A4A000FDF7ACFF801B41F288339842F3D90320BB
:10A4B00005E0D36923F08053D361BBE7002002B0ED
:10A4C00070BD00BF0010024000700040000042421A
:10A4D0002DE9F04782B00546884617461E46FDF72F
:10A4E0008DFF0A9B1B1A03EB0609FDF787FF8246C7
:10A4F0002B4B1B68C3F3CB3309FB03F301932B688E
:10A500009C6838EA04030CBF4FF0010C4FF0000CBC
:10A51000BC4540D0B6F1FF3FF1D0FDF76FFFA0EB97
:10A520000A0048450AD2B9F1000F07D0019A02B1DA
:10A530004A46019B013B01939146E0E72A68536834
:10A5400023F0E00353606B68B3F5827F0BD0AB6AF6
:10A55000B3F5005F14D0012385F85130002385F84E
:10A560005030032018E0AB68B3F5004F02D0B3F5CC
:10A57000806FECD12A68136823F040031360E6E78C
:10A580002A68136823F4005313602A68136843F49D
:10A5900000531360DFE7002002B0BDE8F08700BF82
:10A5A0000000002010B582B004460B460092002245
:10A5B0008021FFF78DFF08B902B010BD636D43F035
:10A5C000200363650320F7E7002856D010B5044642
:10A5D000436A33B94368B3F5827F05D00023C36172
:10A5E00002E00023036143610023A36294F8513029
:10A5F000002B3CD0022384F851302268136823F0EA
:10A6000040031360636803F48273A26802F4044297
:10A610001343E26802F400621343226902F002026B
:10A620001343626902F001021343A26902F400724B
:10A630001343E26902F038021343226A02F08002F7
:10A640001343A26A02F40052216813430B60638B28
:10A65000226803F0040353602268D36923F4006383
:10A66000D36100206065012384F8513010BD84F867
:10A6700050302046FDF770FCBCE701207047000019
:10A6800038B590F85030012B61D00446012380F892
:10A69000503090F85150EDB29D4252D1002951D026
:10A6A000002A4FD0032380F8513000234365016313
:10A6B0008286C2868363436403648387C387836817
:10A6C000B3F5004F2AD0A36C224ADA62A36C224A67
:10A6D0009A62A36C214A1A63A36C00225A6322680F
:10A6E000E38E9BB20C32216BA06CFDF745FF014657
:10A6F000F8B923681A6812F0400F03D11A6842F0C3
:10A7000040021A602268536843F0200353602268B5
:10A71000536843F0020353600D4613E00268136868
:10A7200023F0400313600268136843F4804313600E
:10A73000C9E7636D43F010036365012384F851306A
:10A7400000E00225002384F85030284638BD022559
:10A75000FBE700BF63A7000891A700086FA70008E8
:10A76000704708B5406AFFF7FBFF08BD704708B5A2
:10A77000406A0268536823F003035360436D43F05B
:10A7800010034365012380F85130FFF7EFFF08BD48
:10A7900030B583B00546446AFDF730FE2B681B6870
:10A7A00013F0200F23D1024621684B6823F02003C9
:10A7B0004B6021684B6823F002034B606421204604
:10A7C000FFF7F0FE18B1636D43F020036365A368E3
:10A7D00033B901932368DA6801929B680193019B66
:10A7E0000023E386012384F85130636D23B92046AA
:10A7F00007F050FC03B030BD2046FFF7B7FFF9E784
:10A8000030B585B00446026851689368C3F3801080
:10A8100013F0400F05D113F0010F02D011F0400FDB
:10A820005AD113F0020F02D011F0800F58D1C3F3A8
:10A83000401513F0200F01D1002854D011F0200F43
:10A8400051D078B194F85130DBB2032B4DD0636D09
:10A8500043F00403636500230193D3680193936875
:10A860000193019B65B1636D43F0010363650023B0
:10A87000039393680393136823F040031360039BCF
:10A88000636D002B2FD02268536823F0E0035360E0
:10A89000012384F8513011F0030F2ED02268536841
:10A8A00023F003035360E36C4BB1164A5A63E06C28
:10A8B000FDF7BEFE18B1636D43F040036365A36C02
:10A8C0008BB1104A5A63A06CFDF7B2FE58B1636DAC
:10A8D00043F04003636506E0236C2046984702E09E
:10A8E000636C2046984705B030BD00230293D368BF
:10A8F000029393680293029BF5E72046FFF736FF29
:10A90000F1E700BF09A9000808B5406A0023C38722
:10A91000C386FFF72BFF08BD10B4036A046A24F056
:10A9200001040462846924F0F00C4CEA021223F062
:10A930000A030B438261036210BC704710B4046ABF
:10A9400024F0100404628469036A24F4704C4CEA15
:10A95000023223F0A00343EA01138261036210BCB8
:10A960007047836823F070030B4343F00703836051
:10A970007047000090F83D30DBB2012B27D1022355
:10A9800080F83D300268D36843F00103D360036868
:10A99000114A934210D0B3F1804F0DD0A2F59432FA
:10A9A000934209D002F58062934205D01A6842F0C2
:10A9B00001021A60002070479A6802F00702062A16
:10A9C00007D01A6842F001021A6000207047012087
:10A9D00070470020704700BF002C0140704770474F
:10A9E00070477047704710B5044603681A6912F043
:10A9F000020F11D0DA6812F0020F0DD06FF00202D0
:10AA00001A610123037703689B6913F0030F70D069
:10AA1000FFF7E6FF0023237723681A6912F0040F7B
:10AA200012D0DA6812F0040F0ED06FF004021A612F
:10AA30000223237723689B6913F4407F5FD020466D
:10AA4000FFF7CEFF0023237723681A6912F0080F5F
:10AA500012D0DA6812F0080F0ED06FF008021A61F7
:10AA6000042323772368DB6913F0030F4ED02046BD
:10AA7000FFF7B6FF0023237723681A6912F0100F3F
:10AA800012D0DA6812F0100F0ED06FF010021A61B7
:10AA9000082323772368DB6913F4407F3DD02046E9
:10AAA000FFF79EFF0023237723681A6912F0010F36
:10AAB00003D0DA6812F0010F36D123681A6912F058
:10AAC000800F03D0DA6812F0800F34D123681A693E
:10AAD00012F0400F03D0DA6812F0400F32D1236831
:10AAE0001A6912F0200F03D0DA6812F0200F30D16B
:10AAF00010BDFFF774FF2046FFF773FF8AE720467B
:10AB0000FFF76DFF2046FFF76CFF9BE72046FFF73E
:10AB100066FF2046FFF765FFACE72046FFF75FFFC3
:10AB20002046FFF75EFFBDE76FF001021A61204685
:10AB3000FFF754FFC1E76FF080021A61204600F072
:10AB400026F9C3E76FF040021A612046FFF74AFF7B
:10AB5000C5E76FF020021A61204600F017F9C7E739
:10AB600003681B4A90420AD0B0F1804F07D0A2F58B
:10AB70009432904203D002F58062904203D123F0D8
:10AB800070034A681343124A90420AD0B0F1804FD2
:10AB900007D0A2F59432904203D002F58062904231
:10ABA00003D123F44073CA68134323F080034A6936
:10ABB000134303608B68C3620B688362044B984243
:10ABC00002D00123436170470B690363F9E700BFBB
:10ABD000002C014040B310B5044690F83D30F3B16D
:10ABE000022384F83D30214651F8040BFFF7B8FFEB
:10ABF000012384F8463084F83E3084F83F3084F8EE
:10AC0000403084F8413084F8423084F8433084F88E
:10AC1000443084F8453084F83D30002010BD80F881
:10AC20003C30FDF721FBDBE70120704710B484685E
:10AC300024F47F4C42EA03220A4342EA0C02826077
:10AC400010BC704790F83C30012B66D010B504461C
:10AC5000012380F83C30022380F83D30026893687D
:10AC600023F47F4323F0770393600B68602B40D07D
:10AC700022D8402B47D00BD9502B0ED1CA68496837
:10AC80000068FFF749FE50212068FFF76AFE04E0E4
:10AC9000202B0CD008D9302B09D0012384F83D306B
:10ACA000002084F83C0010BD0BB1102BF5D11946E3
:10ACB0002068FFF756FEF0E7702B0ED0B3F5005F6B
:10ACC000EBD1CB684A6889680068FFF7AFFF22685C
:10ACD000936843F480439360DFE7CB684A688968F0
:10ACE0000068FFF7A3FF2268936843F0770393603F
:10ACF000D3E7CA6849680068FFF720FE6021206832
:10AD0000FFF72FFEC9E7CA6849680068FFF704FE2D
:10AD100040212068FFF725FEBFE7022070470000B2
:10AD200090F83C30012B2CD010B4012380F83C303B
:10AD3000022380F83D3003685A689C6822F0700C4A
:10AD40000A6842EA0C025A6003680F4A93420AD02A
:10AD5000B3F1804F07D0A2F59432934203D002F5AD
:10AD60008062934204D124F080044A6814439C60BA
:10AD7000012380F83D30002380F83C30184610BC99
:10AD800070470220704700BF002C01407047704799
:10AD90000268D36823F49073D3600268536923F088
:10ADA00001035361036B012B05D0202380F83E3053
:10ADB0000023036370470268D36823F01003D36055
:10ADC000F3E790F83D30DBB2212B01D00220704731
:10ADD0008368B3F5805F17D0036A5A1C02621A7841
:10ADE00003685A60C38C9BB2013B9BB2C3844BB9CE
:10ADF0000268D36823F08003D3600268D36843F00D
:10AE00004003D360002070470369002BE4D1036A3C
:10AE10001B880268C3F308035360036A02330362AA
:10AE2000E0E7000010B504460268136923F44053BC
:10AE3000C1680B43136183680269134342691A4373
:10AE40000168CB6823F4B05323F00C031343CB60A9
:10AE50000268536923F4407381690B4353610268AC
:10AE6000134B9A4220D0FFF787FA024602EB820288
:10AE700002EB820263689B00B2FBF3F20D48A0FB79
:10AE800002314909642303FB11231B013233A0FB68
:10AE900003235B0903F0F00202EB011203F00F033E
:10AEA000216813448B6010BDFFF776FA0246DDE798
:10AEB000003801401F85EB5158B310B5044690F897
:10AEC0003D300BB3242384F83D302268D36823F44B
:10AED0000053D3602046FFF7A5FF2268136923F4CF
:10AEE000904313612268536923F02A035361226857
:10AEF000D36843F40053D36000202064202384F8F7
:10AF00003D3084F83E3010BD80F83C30FDF7EEF95E
:10AF1000D8E701207047704708B50168CA6822F079
:10AF20004002CA60202280F83D20FFF7F4FF002095
:10AF300008BD7047704708B5406A0023C385C384C5
:10AF4000FFF7F8FF08BD704790F83E30DBB2222BC8
:10AF500060D18368B3F5805F46D0826AB3F5805FC5
:10AF600004D0002B4DD10369002B4AD103685B68E4
:10AF70001370836A01338362C38D9BB2013B9BB222
:10AF8000C385002B48D100B583B00268D36823F095
:10AF90002003D3600268D36823F48073D36002680F
:10AFA000536923F001035361202380F83E30036B83
:10AFB000012B2CD1002303630268D36823F0100314
:10AFC000D36003681A6812F0100F06D000220192B5
:10AFD0001A6801925B680193019B818DFFF7B3FFB3
:10AFE000002003B05DF804FB0269002AB5D1826A33
:10AFF00003685B68C3F308031380836A02338362C8
:10B00000BAE703685B6803F07F031370B1E7FFF7EB
:10B0100090FFE5E7022070470020704730B583B00D
:10B02000044602681368D068516913F00F0505D112
:10B0300013F0200F02D010F0200F19D12DB111F014
:10B04000010119D110F4907F16D1216B012975D01F
:10B0500013F0800F03D010F0800F40F0D78013F072
:10B06000400F03D010F0400F40F0D48003B030BD4B
:10B070002046FFF769FFF9E713F0010F06D010F43F
:10B08000807F03D0226C42F00102226413F0040F8F
:10B0900004D019B1226C42F00202226413F0020FB4
:10B0A00004D019B1226C42F00402226413F0080F9C
:10B0B00007D010F0200F00D119B1226C42F0080225
:10B0C0002264226C002AD1D013F0200F02D010F09D
:10B0D000200F21D123685B6903F04003226C12F03A
:10B0E000080F00D123B32046FFF752FE23685A69A8
:10B0F00012F0400F18D05A6922F040025A61A36B37
:10B1000073B1464A5A63A06BFDF792FA0028ADD09E
:10B11000A06B436B9847A9E72046FFF715FFD9E7D7
:10B120002046FFF707FFA1E72046FFF703FF9DE753
:10B130002046FFF7FFFE0023236497E713F0100F6C
:10B1400086D010F0100F83D0002301931368019371
:10B1500053680193019B536913F0400F32D0A16BE8
:10B160000B685B689BB2002B80D0A08D98427FF665
:10B170007DAFE3858B69202B08D1A18DE38D9BB238
:10B18000C91A89B22046FFF7DEFE6FE7D36823F4C1
:10B190008073D3602268536923F0010353612268EE
:10B1A000536923F040035361202384F83E30002389
:10B1B00023632268D36823F01003D360A06BFDF7EC
:10B1C00015FADAE7A18DE38D9BB2C91A89B2E38D36
:10B1D0009BB2002B3FF44AAF00293FF447AFD3683E
:10B1E00023F49073D3602268536923F00103536101
:10B1F000202384F83E30002323632268D36823F0A1
:10B200001003D3602046FFF79EFE2FE72046FFF78E
:10B21000D8FD2BE72046FFF77FFE27E737AF000872
:10B22000034681628285C28500201864222283F849
:10B230003E2083F83C001968CA6842F48072CA60F4
:10B2400019684A6942F001024A611A68D36843F0FA
:10B250002003D360704708B590F83E30DBB2202B56
:10B260000DD171B17AB190F83C30012B0DD0012392
:10B2700080F83C3000230363FFF7D2FF00E0022098
:10B2800008BD0120FCE70120FAE70220F8E784B0BE
:10B2900001A880E80E00002004B07047034600209B
:10B2A000A3F844004FF43F42A3F840207047B0F8A1
:10B2B000403023F47C535B045B0CA0F8403000204A
:10B2C00070470020704784B0844601A880E80E00D3
:10B2D0000123ACF840300020ACF84000ACF844004A
:10B2E000ACF8500004B0704710B5034691F800C0A8
:10B2F00030F82C2092B222F4EC4222F0700292B28A
:10B30000C878032861D8DFE800F0555C02580020B7
:10B3100048F2800E42EA0E0223F82C2091F800C079
:10B3200033F82C2092B222F4E04222F070024CEA70
:10B33000020242EA0E0223F82C200A7B002A40F087
:10B34000C4804A78002A51D0B3F8502092B21A44EF
:10B350000C7802EB0412B1F806C04FEA5C0C4FEA1D
:10B360004C0CA2F800C40C7833F8242012F0400FE3
:10B370000CD033F8242092B222F4E04222F0700282
:10B3800042F4004242F0C00223F82420CA78012A85
:10B390001DD0097833F8212092B222F4E04222F045
:10B3A000400282F0200242F4004242F0800223F880
:10B3B00021206AE042F40072AAE742F4C062002051
:10B3C000A6E742F480620020A2E70120A0E7097806
:10B3D00033F8212092B222F4E04222F0400242F4FB
:10B3E000004242F0800223F821204EE0B3F85020C2
:10B3F00092B21A440C7802EB0412B1F806C04FEA7C
:10B400005C0C4FEA4C0CA2F808C4B3F8502092B27E
:10B410001A440C7802EB04120C69BCBBB2F80CC4E1
:10B420001FFA8CFC2CF4F84C1FFA8CFCA2F80CC40C
:10B43000B2F80CC46FEA4C4C6FEA5C4C1FFA8CFCFF
:10B44000A2F80CC40C7833F8242012F4804F0CD0EE
:10B4500033F8242092B222F4E04222F0700242F447
:10B46000404242F0800223F82420097833F821205A
:10B4700092B222F4804222F0700282F4405242F4EE
:10B48000004242F0800223F8212010BD3E2C0DD84E
:10B490004FEA540C14F0010F01D00CF1010C4FEAEB
:10B4A0008C2C1FFA8CFCA2F80CC4CBE74FEA541C7E
:10B4B00014F01F0F01D10CF1FF3C6FEACC646FEA6E
:10B4C0005444A4B2A2F80C44BCE791F800C033F88D
:10B4D0002C2092B222F4E04222F0700242F40142A7
:10B4E00042F0800223F82C20B3F8502092B21A4484
:10B4F00091F800C002EB0C12B1F808C04FEA5C0CE6
:10B500004FEA4C0CA2F800C4B3F8502092B21A448F
:10B5100091F800C002EB0C12B1F80AC04FEA5C0CC3
:10B520004FEA4C0CA2F808C44A78002A41D10C78A2
:10B5300033F8242012F4804F0CD033F8242092B238
:10B5400022F4E04222F0700242F4404242F08002D3
:10B5500023F824200C7833F8242012F0400F0CD06C
:10B5600033F8242092B222F4E04222F0700242F436
:10B57000004242F0C00223F8242091F800C033F8C2
:10B580002C2092B222F4804222F0700282F44052C7
:10B5900048F28004224323F82C20097833F8212034
:10B5A00092B222F4E04222F04002224323F821200A
:10B5B0006BE70C7833F8242012F4804F0CD033F86A
:10B5C000242092B222F4E04222F0700242F440427F
:10B5D00042F0800223F824200C7833F8242012F063
:10B5E000400F0CD033F8242092B222F4E04222F033
:10B5F000700242F4004242F0C00223F82420CA78CC
:10B60000012A1ED00C7833F8242092B222F4E042B2
:10B6100022F0400282F0200242F4004242F0800216
:10B6200023F82420097833F8212092B222F48042B2
:10B6300022F0700242F4004242F0800223F82120FE
:10B6400023E70C7833F8242092B222F4E04222F06F
:10B65000400242F4004242F0800223F82420E1E755
:10B660000B7B002B46D14B7813B30A7830F822308D
:10B6700013F0400F0CD030F822309BB223F4E0439B
:10B6800023F0700343F4004343F0C00320F822305A
:10B690000A7830F822309BB223F4E04323F04003D1
:10B6A00043F4004343F0800320F822300020704729
:10B6B0000A7830F8223013F4804F0CD030F8223062
:10B6C0009BB223F4E04323F0700343F4404343F080
:10B6D000800320F822300A7830F822309BB223F41D
:10B6E000804323F0700343F4004343F0800320F8C9
:10B6F0002230DBE74B78002B4ED10A7830F822302D
:10B7000013F4804F0CD030F822309BB223F4E04386
:10B7100023F0700343F4404343F0800320F82230C9
:10B720000A7830F8223013F0400F0CD030F8223075
:10B730009BB223F4E04323F0700343F4004343F04F
:10B74000C00320F822300A7830F822309BB223F46C
:10B75000E04323F0700343F4004343F0C00320F8B8
:10B7600022300B7830F8232092B222F4804222F06B
:10B77000700248F2800C42EA0C0220F823200A787A
:10B7800030F822309BB223F4E04323F0400343EA35
:10B790000C0320F8223089E70A7830F8223013F4BD
:10B7A000804F0CD030F822309BB223F4E04323F0DA
:10B7B000700343F4404343F0800320F822300A78BA
:10B7C00030F8223013F0400F0CD030F822309BB20A
:10B7D00023F4E04323F0700343F4004343F0C00339
:10B7E00020F822300A7830F822309BB223F4E0436C
:10B7F00023F0700343F4404343F0800320F82230E9
:10B800000B7830F8232092B222F4E04222F040027A
:10B8100048F2800C42EA0C0220F823200A7830F823
:10B8200022309BB223F4804323F0700343EA0C03DD
:10B8300020F822303AE74B788BB10A7830F8223082
:10B840009BB223F4E04323F0400383F0100343F45E
:10B85000004343F0800320F82230002070470A782C
:10B8600030F822309BB223F4804323F0700383F43A
:10B87000805343F4004343F0800320F82230ECE788
:10B880000B7B002B4BD14B7833B30A7830F8223046
:10B8900013F0400F0CD030F822309BB223F4E04379
:10B8A00023F0700343F4004343F0C00320F8223038
:10B8B000CB78012B33D00A7830F822309BB223F4B6
:10B8C000E04323F0400383F0200343F4004343F0BC
:10B8D000800320F8223022E00A7830F8223013F476
:10B8E000804F0CD030F822309BB223F4E04323F099
:10B8F000700343F4404343F0800320F822300A7879
:10B9000030F822309BB223F4804323F0700383F499
:10B91000405343F4004343F0800320F822300020DA
:10B92000704711B98023A0F84C30002070470020E8
:10B93000704700207047B0F8440080B27047002084
:10B94000704710B45C1C640800EB420202F5806290
:10B9500007E00B78487843EA002322F8043B0231E1
:10B96000013C002CF5D110BC704770B505460C4663
:10B970004B78012B37D00A7B002A40F026838B6955
:10B980000A69934240F204839B1A8B61B5F85030E8
:10B990009BB22B44217803EB0113002A40F0FC8278
:10B9A000B3F80C2492B222F4F84292B2A3F80C2419
:10B9B000B3F80C246FEA42426FEA524292B2A3F803
:10B9C0000C24227835F822309BB223F4804323F0F4
:10B9D000700383F4405343F4004343F0800325F89D
:10B9E0002230002070BD8E690A69964200D9164641
:10B9F000237B002B39D0E378022B58D0227835F8FE
:10BA000022309BB223F4E04323F0700343F401435C
:10BA100043F0800325F82230236A9B1B236223789E
:10BA200035F8232012F0400F00F026826278002AB9
:10BA300040F0CA81B5F8502092B22A4402EB0313B9
:10BA4000002E40F0A881B3F80C2492B222F4F84200
:10BA500092B2A3F80C24B3F80C246FEA42426FEAC6
:10BA6000524292B2A3F80C24B0E1B6B23346E28857
:10BA700061692846FFF765FFB5F850309BB22B444B
:10BA8000227803EB0213A3F80464227835F82230FD
:10BA90009BB223F4E04323F0400383F0300343F4EC
:10BAA000004343F0800325F8223000209AE7236A00
:10BAB0009A4280F05281227835F822309BB223F4EA
:10BAC000E04323F0700343F4014343F0800325F87F
:10BAD0002230236A9B1B2362237835F8232012F03F
:10BAE000400F00F09D8062788ABBB5F8502092B27A
:10BAF0002A4402EB03138EB9B3F80C2492B222F459
:10BB0000F84292B2A3F80C24B3F80C246FEA424234
:10BB10006FEA524292B2A3F80C241AE03E2E09D8E2
:10BB2000720816F0010F00D00132920292B2A3F80F
:10BB30000C240EE0720916F01F0F00D1013A6FEAD3
:10BB4000C2626FEA524292B2A3F80C2401E0012AC9
:10BB50002BD0B3B2628961692846FFF7F2FE6369B0
:10BB600033446361236A2269934228D99B1B236271
:10BB70006378002B40D1B5F850309BB22B4422782B
:10BB800003EB0213FEB9B3F8042492B222F4F84294
:10BB900092B2A3F80424B3F804246FEA42426FEA95
:10BBA000524292B2A3F8042428E0B5F8502092B291
:10BBB0002A4402EB0313B2B2A3F80C24C9E7002213
:10BBC00022621E46D4E73E2E09D8720816F0010FF5
:10BBD00000D00132920292B2A3F804240EE072095E
:10BBE00016F01F0F00D1013A6FEAC2626FEA5242AB
:10BBF00092B2A3F8042401E0012B06D0B3B222894B
:10BC000061692846FFF79DFE3FE7B5F850309BB2CB
:10BC10002B44227803EB0213B2B2A3F80424EDE71D
:10BC200062788ABBB5F8502092B22A4402EB031323
:10BC30008EB9B3F8042492B222F4F84292B2A3F877
:10BC40000424B3F804246FEA42426FEA524292B2EB
:10BC5000A3F804241AE03E2E09D8720816F0010F4A
:10BC600000D00132920292B2A3F804240EE07209CD
:10BC700016F01F0F00D1013A6FEAC2626FEA52421A
:10BC800092B2A3F8042401E0012A2BD0B3B2228996
:10BC900061692846FFF755FE636933446361236A8F
:10BCA0002269934228D99B1B23626378002B40D1E1
:10BCB000B5F850309BB22B44227803EB0213FEB947
:10BCC000B3F80C2492B222F4F84292B2A3F80C24F6
:10BCD000B3F80C246FEA42426FEA524292B2A3F8E0
:10BCE0000C2428E0B5F8502092B22A4402EB03134A
:10BCF000B2B2A3F80424C9E7002222621E46D4E7A8
:10BD00003E2E09D8720816F0010F00D001329202BF
:10BD100092B2A3F80C240EE0720916F01F0F00D1A6
:10BD2000013A6FEAC2626FEA524292B2A3F80C245F
:10BD300001E0012B06D0B3B2628961692846FFF7A2
:10BD400000FEA2E6B5F850309BB22B44227803EBFC
:10BD50000213B2B2A3F80C24EDE7217835F82120C4
:10BD600092B222F4E24222F0700242F4004242F027
:10BD7000800225F82120B5F8502092B22A4421787B
:10BD800002EB01129BB2A2F80434228961692846B1
:10BD9000FFF7D7FD79E63E2E09D8720816F0010F9D
:10BDA00000D00132920292B2A3F80C240EE0720984
:10BDB00016F01F0F00D1013A6FEAC2626FEA5242D9
:10BDC00092B2A3F80C2401E0012A26D0B3B2628912
:10BDD00061692846FFF7B5FD636933446361236AEF
:10BDE0002269934223D99B1B2362002E3FF44DAE60
:10BDF00063786BBBB5F850309BB22B44227803EBD1
:10BE000002133E2E17D8720816F0010F00D001322F
:10BE1000920292B2A3F804241CE0B5F8502092B22A
:10BE20002A4402EB0313B2B2A3F80C24CEE700229B
:10BE300022621E46D9E7720916F01F0F00D1013A9F
:10BE40006FEAC2626FEA524292B2A3F8042401E0A0
:10BE5000012B06D0B3B2228961692846FFF771FD34
:10BE600013E6B5F850309BB22B44227803EB021353
:10BE7000B2B2A3F80424EDE762788ABBB5F850208B
:10BE800092B22A4402EB03138EB9B3F8042492B29F
:10BE900022F4F84292B2A3F80424B3F804246FEA1F
:10BEA00042426FEA524292B2A3F804241AE03E2EB4
:10BEB00009D8720816F0010F00D00132920292B236
:10BEC000A3F804240EE0720916F01F0F00D1013A06
:10BED0006FEAC2626FEA524292B2A3F8042401E010
:10BEE000012A26D0B3B2228961692846FFF729FDCD
:10BEF000636933446361236A2269934223D99B1B9C
:10BF00002362002E3FF4C1AD63786BBBB5F85030AF
:10BF10009BB22B44227803EB02133E2E17D87208F3
:10BF200016F0010F00D00132920292B2A3F80C2455
:10BF30001CE0B5F8502092B22A4402EB0313B2B2CF
:10BF4000A3F80424CEE7002222621E46D9E7720934
:10BF500016F01F0F00D1013A6FEAC2626FEA524237
:10BF600092B2A3F80C2401E0012B06D0B3B262898F
:10BF700061692846FFF7E5FC87E5B5F850309BB2CC
:10BF80002B44227803EB0213B2B2A3F80C24EDE7A2
:10BF900000228A611A46F9E43E2A09D8510812F0B3
:10BFA000010F00D00131890289B2A3F80C1408E511
:10BFB000510912F01F0F00D101396FEAC1616FEA18
:10BFC000514189B2A3F80C14FBE4CA78022A45D087
:10BFD000012A40F0208189692269914240F2D4808F
:10BFE000891AA161D3B9B5F850309BB22B4421789E
:10BFF00003EB0113002A40F0CB80B3F8041489B29C
:10C0000021F4F84189B2A3F80414B3F804146FEAD8
:10C0100041416FEA514189B2A3F804146378002BBF
:10C0200040F0EA80B5F850309BB22B44217803EB06
:10C030000113002A40F0C580B3F80C2492B222F418
:10C04000F84292B2A3F80C24B3F80C246FEA4242EF
:10C050006FEA524292B2A3F80C24B2E4CBB9B0F822
:10C0600050309BB203440A7803EB02130A6972BB97
:10C07000B3F8042492B222F4F84292B2A3F8042452
:10C08000B3F804246FEA42426FEA524292B2A3F834
:10C0900004246378002B4CD1B5F850309BB22B446C
:10C0A000227803EB0213226952BBB3F80C2492B23C
:10C0B00022F4F84292B2A3F80C24B3F80C246FEAED
:10C0C00042426FEA524292B2A3F80C2433E03E2A75
:10C0D00009D8510812F0010F00D001318A0292B242
:10C0E000A3F80424D5E7510912F01F0F00D101393C
:10C0F0006FEAC1626FEA524292B2A3F80424C8E721
:10C100003E2A09D8510812F0010F00D001318A02ED
:10C1100092B2A3F80C240EE0510912F01F0F00D1C7
:10C1200001396FEAC1626FEA524292B2A3F80C245D
:10C1300001E0012B1DD0E369002B3FF442AC2278D3
:10C1400035F8221044F2400303EA01008B4302D089
:10C1500000287FF436AC35F822309BB223F4E0435C
:10C1600023F0700343F4004343F0C00325F822306A
:10C1700027E4B5F850309BB22B44227803EB02132E
:10C18000228AA3F80C24D6E70022A2610A4629E7F6
:10C190003E2A09D8510812F0010F00D0013189025E
:10C1A00089B2A3F8041439E7510912F01F0F00D126
:10C1B00001396FEAC1616FEA514189B2A3F80414F1
:10C1C0002CE73E2A0AD8510812F0010F00D00131A5
:10C1D0008A0292B2A3F80C24FFF7F3BB510912F0C4
:10C1E0001F0F00D101396FEAC1626FEA524292B269
:10C1F000A3F80C24FFF7E5BB012B7FF4E2ABB5F805
:10C2000050309BB22B44217803EB011392B2A3F878
:10C210000C24FFF7D6BB0120FFF7E4BB10B45C0889
:10C2200000EB420000F5806007E030F8042B0A7054
:10C23000C2F307224A700231013C002CF5D113F001
:10C24000010F01D003880B7010BC70472DE9F0433B
:10C2500083B006460D4601921F469DF8063013B97D
:10C2600001238DF8063000240CE0C02222E0C02219
:10C2700037E0C02305EB450206EBC202224482F8F8
:10C280004B330134072C44DC9DF80500FBF7AAFA78
:10C290003946FBF7FFFAFBF7C3FCC0B296F83B9DAB
:10C2A00040FA09F04FF0800848FA04F810EA080F45
:10C2B000DBD0F82205EB450306EBC303234483F8E8
:10C2C0003B239DF80400FBF78DFA3946FBF7E2FAB1
:10C2D000FBF7A6FCC0B240FA09F018EA000FC6D07E
:10C2E000F82205EB450306EBC303234483F84323FD
:10C2F0009DF80600FBF776FA3946FBF7CBFAFBF719
:10C300008FFCC2B242FA09F218EA020FB1D0F82348
:10C31000B0E703B0BDE8F08310B5044694F8C1302F
:10C32000002BFBD1012384F8C1304FF41C6204F2CE
:10C330003B310848FEF7A4F994F8C130002BFBD13B
:10C34000012384F8C130402204F6FB410148FEF786
:10C3500097F910BD7407002082B00191A0F83C1D30
:10C360000B0C80F83E3D02B0704782B00191BDF8E1
:10C3700004209DF80630A0F83F2D80F8413D02B022
:10C38000704782B00191BDF804209DF80630A0F8F6
:10C39000422D80F8443D02B0704782B00191BDF853
:10C3A00004209DF80630A0F8452D80F8473D02B0E6
:10C3B0007047000030B589B0054600240FE0002327
:10C3C0008DF800308DF801308DF80230D5F8BC3092
:10C3D000009A21462846FFF739FF0134E4B2672C62
:10C3E000EDD9304B1B68ADF804301B0C8DF80630CE
:10C3F00001992846FFF7B9FF00248DF80840C823AB
:10C400008DF809308DF80A4002992846FFF7B9FFE8
:10C41000FF238DF80C308DF80D408DF80E400399F8
:10C420002846FFF7BAFF204BDB8A642B09D0C82BC4
:10C4300013D0B3F5967F1CD0B3F5C87F25D009B0D3
:10C4400030BD184B5B68ADF810301B0C8DF8123006
:10C4500004992846FFF780FFF1E7124B9B68ADF87F
:10C4600014301B0C8DF8163005992846FFF774FF21
:10C47000E5E70C4BDB68ADF818301B0C8DF81A3073
:10C4800006992846FFF768FFD9E7064B1B69ADF808
:10C490001C301B0C8DF81E3007992846FFF75CFFF7
:10C4A000CDE700BFB025010800220020012A10D0EE
:10C4B000022A17D022B113B1154B01229A7070478E
:10C4C000012281F8C020002BF5D0124A01211175FC
:10C4D000F1E7002281F8C020002BECD00D4A0021AA
:10C4E0001175E8E791F8C02042B1002281F8C02020
:10C4F000002BE0D0074A00211175DCE7012281F80A
:10C50000C020002BD7D0034A01211175D3E700BF0B
:10C51000A022002000220020F0B585B001919DF8F6
:10C5200004304FF4B47202FB03F3614C84FB032428
:10C530001C44E4115F4A934201DD40F267149DF808
:10C540000600FBF753F906469DF80500C0F1FF0011
:10C55000FBF74CF93146FBF79DF95749FBF74EFACB
:10C560000746564D85FB04352B19E517C5EB6315BA
:10C57000C5EB0510A4EB8000FBF738F904463946FB
:10C580003046FBF77DF82146FBF784F94C49FBF771
:10C5900035FA0446042D77D8DFE805F0032A3D502C
:10C5A00063003046FBF73CFB8DF808002146384617
:10C5B000FBF768F8FBF734FB8DF809003846FBF70A
:10C5C0002FFB8DF80A00029BADF80C301B0C8DF888
:10C5D0000E3000209DF80C3063F307009DF80D30FD
:10C5E00063F30F209DF80E3063F3174005B0F0BDE4
:10C5F00001463046FBF744F8FBF712FB8DF80800C4
:10C600003046FBF70DFB8DF809003846FBF708FBB9
:10C610008DF80A00D7E73846FBF702FB8DF80800D3
:10C620003046FBF7FDFA8DF8090021463846FBF746
:10C6300029F8FBF7F5FA8DF80A00C4E73846FBF74E
:10C64000EFFA8DF8080021463046FBF719F8FBF7A2
:10C65000E7FA8DF809003046FBF7E2FA8DF80A0098
:10C66000B1E701463846FBF70DF8FBF7D9FA8DF82C
:10C6700008003846FBF7D4FA8DF809003046FBF77E
:10C68000CFFA8DF80A009EE73046FBF7C9FA8DF81D
:10C6900008003846FBF7C4FA8DF8090021463046F9
:10C6A000FAF7EEFFFBF7BCFA8DF80A008BE700BF44
:10C6B000818080809766010000007F438988888898
:10C6C00000007042000000002DE9F04F91B00446D8
:10C6D00090F8C030002B03F06D810D46042903F261
:10C6E0007C81DFE811F005006500E000280195017C
:10C6F000B54E3068FAF790FEABA3D3E90023FAF702
:10C700002DFDFAF769FF3060B049FBF77FFA08B1F9
:10C7100000223260542D23D8AB4B1868FBF780FA07
:10C720008DF81000F5238DF81130FF238DF81230AD
:10C7300004992046FFF7F0FE8DF81400C0F307239C
:10C740008DF81530C0F307408DF81600D4F8BC30D2
:10C75000059A29462046FFF779FD0135EDB2D9E764
:10C760005525672D03F23981974B1868FBF758FA66
:10C770008DF81800F5238DF81930FF238DF81A3045
:10C7800006992046FFF7C8FE8DF81C00C0F307236A
:10C790008DF81D30C0F307408DF81E00D4F8BC3072
:10C7A000079A29462046FFF751FD0135EDB2D8E73B
:10C7B000874B1868FAF730FE06460F467CA3D3E98C
:10C7C0000023FAF7F5FE002837D0824B00221A70BA
:10C7D000804B1B78002B3DD077A3D3E90023304654
:10C7E0003946FAF7BBFCFAF7F7FE794B1860784B3D
:10C7F0001D684FF07E512846FBF708FA002835D017
:10C80000754B4FF07E521A600025542D31D8734B72
:10C810005B69ADF820301B0C8DF822306E4B196827
:10C82000D4F8BC00FBF736F80346089A29462046A0
:10C83000FFF70CFD0135EDB2E7E761A3D3E9002373
:10C8400030463946FAF7AAFE0028C1D0614B0122D2
:10C850001A70BDE758A3D3E9002330463946FAF7EA
:10C860007BFCFAF7B9FE5A4B1860C0E75A4B1D60C3
:10C87000CAE75525672D03F2B080584B5B69ADF8C8
:10C8800024301B0C8DF82630534B1968D4F8BC00AB
:10C89000FBF700F80346099A29462046FFF7D6FC25
:10C8A0000135EDB2E6E74E4B1B780BB34D4A1368EA
:10C8B000013313604B4B1B68FA2B1ED9484B0022E7
:10C8C0001A700025542D1ED8464B1B688DF8283051
:10C8D00032238DF8293000238DF82A30D4F8BC306B
:10C8E0000A9A29462046FFF7B1FC0135EDB2E9E787
:10C8F0003C4A1368013B1360DCE7002BE1D1384B65
:10C9000001221A70DDE75525672D03F26680354B4D
:10C910001B688DF82C3032238DF82D3000238DF8D4
:10C920002E30D4F8BC300B9A29462046FFF78EFCF7
:10C930000135EDB2E8E7002514E005F1080304EB4A
:10C940004303B3F9061000238DF834308DF83530E9
:10C950008DF8363000230D9AC9B22046FFF776FCD9
:10C960000135EDB2512D3FD8EB0834F9132005F015
:10C97000070180230B411A42DFD005F1080304EBC5
:10C980004303B3F90610154B5B69ADF830301B0C4F
:10C990008DF83230D4F8BC300C9AC9B22046FFF77B
:10C9A00055FCDDE7AFF300809A9999999999D93FA1
:10C9B0009A9999999999F13F7B14AE47E17A743F1E
:10C9C000B81E85EB51B8AE3FA008002000007F43A1
:10C9D000100000200C000020A4080020B025010851
:10C9E00018000020140000205225542D02F2F58773
:10C9F000864B5B69ADF838301B0C8DF83A3000235C
:10CA00000E9A29462046FFF721FC0135EDB2ECE7EE
:10CA1000B0F83232B0F834220292934200F0CC8067
:10CA2000B4F8323201339BB20393A4F832320025BA
:10CA30000E2D00F2E98005EB45072744B7F8C92021
:10CA400097F8CB30A4F8F62084F8F83005F1010B04
:10CA50000BEB4B0AA2449AF8C90097F8C930C01AE8
:10CA6000FAF7C4FE80460298FAF7BCFE81460146FA
:10CA70004046FAF7C3FF01900398FAF7B3FE8046E9
:10CA800001460198FAF706FF019094F8F600FAF7CC
:10CA9000ADFE0199FAF7F6FDFBF7C2F884F8F6004F
:10CAA0009AF8CA0097F8CA30C01AFAF79FFE4946AA
:10CAB000FAF7A4FF01464046FAF7ECFE019094F81D
:10CAC000F700FAF793FE0199FAF7DCFDFBF7A8F8F7
:10CAD00084F8F7009AF8CB0097F8CB30C01AFAF731
